{
  "contractName": "evchain",
  "abi": [
    {
      "inputs": [
        {
          "internalType": "uint256",
          "name": "",
          "type": "uint256"
        }
      ],
      "name": "ev",
      "outputs": [
        {
          "internalType": "uint256",
          "name": "bid",
          "type": "uint256"
        },
        {
          "internalType": "uint256",
          "name": "centerid",
          "type": "uint256"
        },
        {
          "internalType": "string",
          "name": "centername",
          "type": "string"
        },
        {
          "internalType": "string",
          "name": "phone",
          "type": "string"
        },
        {
          "internalType": "string",
          "name": "email",
          "type": "string"
        },
        {
          "internalType": "string",
          "name": "latitude",
          "type": "string"
        },
        {
          "internalType": "string",
          "name": "longitude",
          "type": "string"
        },
        {
          "internalType": "string",
          "name": "place",
          "type": "string"
        }
      ],
      "stateMutability": "view",
      "type": "function",
      "constant": true
    },
    {
      "inputs": [
        {
          "internalType": "uint256",
          "name": "",
          "type": "uint256"
        }
      ],
      "name": "pdetails",
      "outputs": [
        {
          "internalType": "uint256",
          "name": "bid",
          "type": "uint256"
        },
        {
          "internalType": "uint256",
          "name": "payid",
          "type": "uint256"
        },
        {
          "internalType": "uint256",
          "name": "bookingid",
          "type": "uint256"
        },
        {
          "internalType": "string",
          "name": "amount",
          "type": "string"
        },
        {
          "internalType": "string",
          "name": "paydate",
          "type": "string"
        }
      ],
      "stateMutability": "view",
      "type": "function",
      "constant": true
    },
    {
      "inputs": [],
      "name": "vcount",
      "outputs": [
        {
          "internalType": "uint256",
          "name": "",
          "type": "uint256"
        }
      ],
      "stateMutability": "view",
      "type": "function",
      "constant": true
    },
    {
      "inputs": [],
      "name": "vcount1",
      "outputs": [
        {
          "internalType": "uint256",
          "name": "",
          "type": "uint256"
        }
      ],
      "stateMutability": "view",
      "type": "function",
      "constant": true
    },
    {
      "inputs": [
        {
          "internalType": "uint256",
          "name": "_bid",
          "type": "uint256"
        },
        {
          "internalType": "uint256",
          "name": "_centerid",
          "type": "uint256"
        },
        {
          "internalType": "string",
          "name": "_centername",
          "type": "string"
        },
        {
          "internalType": "string",
          "name": "_phone",
          "type": "string"
        },
        {
          "internalType": "string",
          "name": "_email",
          "type": "string"
        },
        {
          "internalType": "string",
          "name": "_latitude",
          "type": "string"
        },
        {
          "internalType": "string",
          "name": "_longitude",
          "type": "string"
        },
        {
          "internalType": "string",
          "name": "_place",
          "type": "string"
        }
      ],
      "name": "add_info",
      "outputs": [],
      "stateMutability": "nonpayable",
      "type": "function"
    },
    {
      "inputs": [
        {
          "internalType": "uint256",
          "name": "_bid",
          "type": "uint256"
        },
        {
          "internalType": "uint256",
          "name": "_payid",
          "type": "uint256"
        },
        {
          "internalType": "uint256",
          "name": "_bookingid",
          "type": "uint256"
        },
        {
          "internalType": "string",
          "name": "_amount",
          "type": "string"
        },
        {
          "internalType": "string",
          "name": "_paydate",
          "type": "string"
        }
      ],
      "name": "add_purchase_info",
      "outputs": [],
      "stateMutability": "nonpayable",
      "type": "function"
    }
  ],
  "bytecode": "0x608060405260008055600060025534801561001957600080fd5b506110cd806100296000396000f3fe608060405234801561001057600080fd5b50600436106100625760003560e01c8063117f685a146100675780632d4dd5fe1461009b57806386a0ce5e146100d25780639f4f7566146100f0578063c75b95ac1461010e578063d9825ef31461012a575b600080fd5b610081600480360381019061007c919061080c565b610146565b6040516100929594939291906108d8565b60405180910390f35b6100b560048036038101906100b0919061080c565b61028c565b6040516100c9989796959493929190610939565b60405180910390f35b6100da610604565b6040516100e791906109e1565b60405180910390f35b6100f861060a565b60405161010591906109e1565b60405180910390f35b61012860048036038101906101239190610b31565b610610565b005b610144600480360381019061013f9190610be4565b6106b8565b005b600360205280600052604060002060009150905080600001549080600101549080600201549080600301805461017b90610d71565b80601f01602080910402602001604051908101604052809291908181526020018280546101a790610d71565b80156101f45780601f106101c9576101008083540402835291602001916101f4565b820191906000526020600020905b8154815290600101906020018083116101d757829003601f168201915b50505050509080600401805461020990610d71565b80601f016020809104026020016040519081016040528092919081815260200182805461023590610d71565b80156102825780601f1061025757610100808354040283529160200191610282565b820191906000526020600020905b81548152906001019060200180831161026557829003601f168201915b5050505050905085565b60016020528060005260406000206000915090508060000154908060010154908060020180546102bb90610d71565b80601f01602080910402602001604051908101604052809291908181526020018280546102e790610d71565b80156103345780601f1061030957610100808354040283529160200191610334565b820191906000526020600020905b81548152906001019060200180831161031757829003601f168201915b50505050509080600301805461034990610d71565b80601f016020809104026020016040519081016040528092919081815260200182805461037590610d71565b80156103c25780601f10610397576101008083540402835291602001916103c2565b820191906000526020600020905b8154815290600101906020018083116103a557829003601f168201915b5050505050908060040180546103d790610d71565b80601f016020809104026020016040519081016040528092919081815260200182805461040390610d71565b80156104505780601f1061042557610100808354040283529160200191610450565b820191906000526020600020905b81548152906001019060200180831161043357829003601f168201915b50505050509080600501805461046590610d71565b80601f016020809104026020016040519081016040528092919081815260200182805461049190610d71565b80156104de5780601f106104b3576101008083540402835291602001916104de565b820191906000526020600020905b8154815290600101906020018083116104c157829003601f168201915b5050505050908060060180546104f390610d71565b80601f016020809104026020016040519081016040528092919081815260200182805461051f90610d71565b801561056c5780601f106105415761010080835404028352916020019161056c565b820191906000526020600020905b81548152906001019060200180831161054f57829003601f168201915b50505050509080600701805461058190610d71565b80601f01602080910402602001604051908101604052809291908181526020018280546105ad90610d71565b80156105fa5780601f106105cf576101008083540402835291602001916105fa565b820191906000526020600020905b8154815290600101906020018083116105dd57829003601f168201915b5050505050905088565b60005481565b60025481565b6002600081548092919061062390610dd1565b91905055506040518060a001604052808681526020018581526020018481526020018381526020018281525060036000600254815260200190815260200160002060008201518160000155602082015181600101556040820151816002015560608201518160030190816106979190610fc5565b5060808201518160040190816106ad9190610fc5565b509050505050505050565b6000808154809291906106ca90610dd1565b9190505550604051806101000160405280898152602001888152602001878152602001868152602001858152602001848152602001838152602001828152506001600080548152602001908152602001600020600082015181600001556020820151816001015560408201518160020190816107469190610fc5565b50606082015181600301908161075c9190610fc5565b5060808201518160040190816107729190610fc5565b5060a08201518160050190816107889190610fc5565b5060c082015181600601908161079e9190610fc5565b5060e08201518160070190816107b49190610fc5565b509050505050505050505050565b6000604051905090565b600080fd5b600080fd5b6000819050919050565b6107e9816107d6565b81146107f457600080fd5b50565b600081359050610806816107e0565b92915050565b600060208284031215610822576108216107cc565b5b6000610830848285016107f7565b91505092915050565b610842816107d6565b82525050565b600081519050919050565b600082825260208201905092915050565b60005b83811015610882578082015181840152602081019050610867565b60008484015250505050565b6000601f19601f8301169050919050565b60006108aa82610848565b6108b48185610853565b93506108c4818560208601610864565b6108cd8161088e565b840191505092915050565b600060a0820190506108ed6000830188610839565b6108fa6020830187610839565b6109076040830186610839565b8181036060830152610919818561089f565b9050818103608083015261092d818461089f565b90509695505050505050565b60006101008201905061094f600083018b610839565b61095c602083018a610839565b818103604083015261096e818961089f565b90508181036060830152610982818861089f565b90508181036080830152610996818761089f565b905081810360a08301526109aa818661089f565b905081810360c08301526109be818561089f565b905081810360e08301526109d2818461089f565b90509998505050505050505050565b60006020820190506109f66000830184610839565b92915050565b600080fd5b600080fd5b7f4e487b7100000000000000000000000000000000000000000000000000000000600052604160045260246000fd5b610a3e8261088e565b810181811067ffffffffffffffff82111715610a5d57610a5c610a06565b5b80604052505050565b6000610a706107c2565b9050610a7c8282610a35565b919050565b600067ffffffffffffffff821115610a9c57610a9b610a06565b5b610aa58261088e565b9050602081019050919050565b82818337600083830152505050565b6000610ad4610acf84610a81565b610a66565b905082815260208101848484011115610af057610aef610a01565b5b610afb848285610ab2565b509392505050565b600082601f830112610b1857610b176109fc565b5b8135610b28848260208601610ac1565b91505092915050565b600080600080600060a08688031215610b4d57610b4c6107cc565b5b6000610b5b888289016107f7565b9550506020610b6c888289016107f7565b9450506040610b7d888289016107f7565b935050606086013567ffffffffffffffff811115610b9e57610b9d6107d1565b5b610baa88828901610b03565b925050608086013567ffffffffffffffff811115610bcb57610bca6107d1565b5b610bd788828901610b03565b9150509295509295909350565b600080600080600080600080610100898b031215610c0557610c046107cc565b5b6000610c138b828c016107f7565b9850506020610c248b828c016107f7565b975050604089013567ffffffffffffffff811115610c4557610c446107d1565b5b610c518b828c01610b03565b965050606089013567ffffffffffffffff811115610c7257610c716107d1565b5b610c7e8b828c01610b03565b955050608089013567ffffffffffffffff811115610c9f57610c9e6107d1565b5b610cab8b828c01610b03565b94505060a089013567ffffffffffffffff811115610ccc57610ccb6107d1565b5b610cd88b828c01610b03565b93505060c089013567ffffffffffffffff811115610cf957610cf86107d1565b5b610d058b828c01610b03565b92505060e089013567ffffffffffffffff811115610d2657610d256107d1565b5b610d328b828c01610b03565b9150509295985092959890939650565b7f4e487b7100000000000000000000000000000000000000000000000000000000600052602260045260246000fd5b60006002820490506001821680610d8957607f821691505b602082108103610d9c57610d9b610d42565b5b50919050565b7f4e487b7100000000000000000000000000000000000000000000000000000000600052601160045260246000fd5b6000610ddc826107d6565b91507fffffffffffffffffffffffffffffffffffffffffffffffffffffffffffffffff8203610e0e57610e0d610da2565b5b600182019050919050565b60008190508160005260206000209050919050565b60006020601f8301049050919050565b600082821b905092915050565b600060088302610e7b7fffffffffffffffffffffffffffffffffffffffffffffffffffffffffffffffff82610e3e565b610e858683610e3e565b95508019841693508086168417925050509392505050565b6000819050919050565b6000610ec2610ebd610eb8846107d6565b610e9d565b6107d6565b9050919050565b6000819050919050565b610edc83610ea7565b610ef0610ee882610ec9565b848454610e4b565b825550505050565b600090565b610f05610ef8565b610f10818484610ed3565b505050565b5b81811015610f3457610f29600082610efd565b600181019050610f16565b5050565b601f821115610f7957610f4a81610e19565b610f5384610e2e565b81016020851015610f62578190505b610f76610f6e85610e2e565b830182610f15565b50505b505050565b600082821c905092915050565b6000610f9c60001984600802610f7e565b1980831691505092915050565b6000610fb58383610f8b565b9150826002028217905092915050565b610fce82610848565b67ffffffffffffffff811115610fe757610fe6610a06565b5b610ff18254610d71565b610ffc828285610f38565b600060209050601f83116001811461102f576000841561101d578287015190505b6110278582610fa9565b86555061108f565b601f19841661103d86610e19565b60005b8281101561106557848901518255600182019150602085019450602081019050611040565b86831015611082578489015161107e601f891682610f8b565b8355505b6001600288020188555050505b50505050505056fea2646970667358221220bed6584b06b2797aa6aca0cd99cd1bc54537a139b4b515a6115a90f68b17cdc964736f6c63430008110033",
  "immutableReferences": {},
  "source": "// SPDX-License-Identifier: MIT\r\npragma solidity >=0.4.22 <0.9.0;\r\n\r\ncontract evchain{\r\nuint public vcount = 0;\r\nmapping(uint => evdetails) public ev;\r\nstruct evdetails{\r\n\tuint bid;\r\n\tuint centerid;\r\n\tstring centername;\r\n\tstring phone;\r\n\tstring email;\r\n\tstring latitude;\r\n\tstring longitude;\r\n\tstring place;\r\n}\r\nuint public vcount1 = 0;\r\nmapping(uint => purchasedetails) public pdetails;\r\nstruct purchasedetails{\r\n\tuint bid;\r\n\tuint payid; \r\n\tuint bookingid;\r\n\tstring amount;\r\n\tstring paydate;\r\n}\r\n\r\nfunction add_info(uint _bid,uint _centerid,string memory _centername,string memory _phone,string memory _email,string memory _latitude,string memory _longitude,string memory _place)public{\r\n        vcount++;\r\n     \tev[vcount]=evdetails(_bid,_centerid,_centername,_phone,_email,_latitude,_longitude,_place);\r\n    }\r\n\r\nfunction add_purchase_info(uint _bid,uint _payid,uint _bookingid,string memory _amount,string memory _paydate)public{\r\n        vcount1++;\r\n     pdetails[vcount1]=purchasedetails(_bid,_payid,_bookingid,_amount,_paydate);\r\n    }\r\n\r\n}",
  "sourcePath": "C:\\RISS PROJECTS D\\Jawahar College\\ev chain\\ev\\contracts\\evstation.sol",
  "compiler": {
    "name": "solc",
    "version": "0.8.17+commit.8df45f5f.Emscripten.clang"
  },
  "schemaVersion": "3.4.11",
  "updatedAt": "2023-04-28T05:32:57.968Z",
  "networkType": "ethereum",
  "devdoc": {
    "kind": "dev",
    "methods": {},
    "version": 1
  },
  "userdoc": {
    "kind": "user",
    "methods": {},
    "version": 1
  }
}